:1001A50010082054203D2000000000000000000041
:0201B500000048
:0901E100D2B3D2B400C2B4002272
:0901EA00D2B3C2B400D2B4002269
:0801B8001201E17F9812015BC6
:0901C000C2B400D2B300C2B322A4
:0901F300D2B400D2B300C2B32261
:10015B00E4FEC2B300EF30E704D2B48002C2B4EFC6
:0C016B0025E0FFD2B3000EBE08E8C2B3CE
:010177002265
:10011C00E4FFD2B4FEC2B300D2B30030B403430741
:0F012C0001EEC394075004EF25E0FF0EBE08E676
:01013B0022A1
:0E01C9001201B87FEE12015B1201F30201EA8F
:10008F001201B87FAA12015B1201F31201EA1201E9
:10009F00E17F9912015B1201C012011C1201F312D0
:1000AF0001EAEF30E70D64806009750D2D1FEFF445
:1000BF00FF8003750D2BEF75F064842430F50EEF80
:1000CF0075F00A8475F00A84E5F02430F50FEF75AA
:0F00DF00F00A84E5F02430F5107511DF75124337
:0100EE0022EF
:0A01D700908001E0F5202007F722D8
:0901FC001201D7908000EFF022FF
:100191007F381201FC7F011201FC7F061201FC7FF6
:0401A1000C0201FC4F
:090205001201D7908002EFF022F3
:06013C008B188A19891AD4
:10014200E4FEAB18AA19A91A8E827583001200EF79
:08015200FF1202050EBE10EAC7
:01015A002282
:100178001201911201C912008F7F801201FC7B00CD
:090188007A00790812013C80EDB7
:03000000020003F8
:0C000300787FE4F6D8FD75812002004AE9
:1000EF00BB010CE58229F582E5833AF583E02250C6
:1000FF0006E92582F8E622BBFE06E92582F8E22210
:0D010F00E58229F582E5833AF583E4932229
:10000F00020178E493A3F8E493A34003F68001F28E
:10001F0008DFF48029E493A3F85407240CC8C333F2
:10002F00C4540F4420C8834004F456800146F6DFC1
:10003F00E4800B01020408102040809001A5E47EAB
:10004F00019360BCA3FF543F30E509541FFEE493B6
:10005F00A360010ECF54C025E060A840B8E493A37D
:10006F00FAE493A3F8E493A3C8C582C8CAC583CAA8
:10007F00F0A3C8C582C8CAC583CADFE9DEE780BE60
:0101B7000047
:00000001FF
