:1001B70010082054203D200000000000000000002F
:0201C700000036
:09020700D2B3D2B400C2B400224B
:09021000D2B3C2B400D2B4002242
:0801CA001202077F901201549C
:0901D200C2B400D2B300C2B32292
:09021900D2B400D2B300C2B3223A
:10015400E4FEC2B300EF30E704D2B48002C2B4EFCD
:0C01640025E0FFD2B3000EBE08E8C2B3D5
:01017000226C
:10011400E4FFD2B4FEC2B300D2B30030B403430749
:0F01240001EEC394075004EF25E0FF0EBE08E67E
:0101330022A9
:0E01F9001201CA7FEE12015412021902021006
:10008F001201CA7FAA12015412021912021012028F
:10009F00077F911201541201D21201141202191288
:1000AF000210EF30E70D64806009750D2D1FEFF41E
:1000BF00FF8003750D2BEF75F064842430F50EEF80
:1000CF0075F00A8475F00A84E5F02430F50FEF75AA
:0F00DF00F00A84E5F02430F5107511DF75124337
:0100EE0022EF
:10013400E4FDFCC3ED9FEC9E5015E4FBFA0BBB0001
:0F014400010ABA04F8BBFBF50DBD00010C80E405
:010153002289
:0F01DB00C2928FA0D293C2937F017E00020134A3
:1001A3007F381201DB7F011201DB7F061201DB7F47
:0401B3000C0201DB5E
:0F01EA00D2928FA0D293C2937F017E0002013484
:1000EF008B188A19891AAB18AA19A91A12018A60D2
:1000FF0013051AE51A7002051914F912018AFF1275
:05010F0001EA80E2227C
:100171001201A31201F912008F7F801201DB7B00B3
:090181007A0079081200EF80ED0C
:03000000020003F8
:0C000300787FE4F6D8FD75811A02004AEF
:10018A00BB010689828A83E0225002E722BBFE0273
:09019A00E32289828A83E49322A6
:10000F00020171E493A3F8E493A34003F68001F295
:10001F0008DFF48029E493A3F85407240CC8C333F2
:10002F00C4540F4420C8834004F456800146F6DFC1
:10003F00E4800B01020408102040809001B7E47E99
:10004F00019360BCA3FF543F30E509541FFEE493B6
:10005F00A360010ECF54C025E060A840B8E493A37D
:10006F00FAE493A3F8E493A3C8C582C8CAC583CAA8
:10007F00F0A3C8C582C8CAC583CADFE9DEE780BE60
:0101C9000035
:00000001FF
