:1001CC0010082054203D200000000000000000001A
:0201DC00000021
:10011C00E4FDFCC3ED9FEC9E5015E4FBFA0BBB0019
:0F012C00010AEB647B4A70F50DBD00010C80E405
:01013B0022A1
:09020800D2B3D2B400C2B400224A
:09021100D2B3C2B400D2B4002241
:0801DF001202087F9812019B37
:0901E700C2B400D2B300C2B3227D
:09021A00D2B400D2B300C2B32239
:10019B00E4FEC2B300EF30E704D2B48002C2B4EF86
:0C01AB0025E0FFD2B3000EBE08E8C2B38E
:0101B7002225
:10013C00E4FFD2B4FEC2B300D2B30030B403430721
:0F014C0001EEC394075004EF25E0FF0EBE08E656
:01015B002281
:0E01F0001201DF7FEE12019B12021A020211B1
:10008F001201DF7FAA12019B12021A120211120231
:10009F00087F9912019B1201E712013C12021A12FA
:1000AF000211EF30E70D64806009750D2D1FEFF41D
:1000BF00FF8003750D2BEF75F064842430F50EEF80
:1000CF0075F00A8475F00A84E5F02430F50FEF75AA
:0F00DF00F00A84E5F02430F5107511DF75124337
:0100EE0022EF
:0A01FE00908001E0F5202007F722B1
:090223001201FE908000EFF022B0
:1001B8007F381202237F011202237F061202237F57
:0401C8000C02022300
:09022C001201FE908002EFF022A5
:06017C008B188A19891A94
:10018200E4FEAB18AA19A91A8E827583001200EF39
:08019200FF12022C0EBE10EA60
:01019A002242
:10015C001201B81201F07FE87E0312011C12008F0D
:10016C007F801202237B007A00790812017C80EDDB
:03000000020003F8
:0C000300787FE4F6D8FD75812002004AE9
:1000EF00BB010CE58229F582E5833AF583E02250C6
:1000FF0006E92582F8E622BBFE06E92582F8E22210
:0D010F00E58229F582E5833AF583E4932229
:10000F0002015CE493A3F8E493A34003F68001F2AA
:10001F0008DFF48029E493A3F85407240CC8C333F2
:10002F00C4540F4420C8834004F456800146F6DFC1
:10003F00E4800B01020408102040809001CCE47E84
:10004F00019360BCA3FF543F30E509541FFEE493B6
:10005F00A360010ECF54C025E060A840B8E493A37D
:10006F00FAE493A3F8E493A3C8C582C8CAC583CAA8
:10007F00F0A3C8C582C8CAC583CADFE9DEE780BE60
:0101DE000020
:00000001FF
